:020000040000fa
:080000000002040000000000f2
:020000040000fa
:04000800860300006b
:020000040000fa
:04000c008603000067
:020000040000fa
:040010008603000063
:020000040000fa
:04001400860300005f
:020000040000fa
:04001800860300005b
:020000040000fa
:04001c008603000057
:020000040000fa
:040020008603000053
:020000040000fa
:04002400860300004f
:020000040000fa
:04002800860300004b
:020000040000fa
:04002c008603000047
:020000040000fa
:040030008603000043
:020000040000fa
:04003400cc020000fa
:020000040000fa
:04003800860300003b
:020000040000fa
:04003c008603000037
:020000040000fa
:040040008603000033
:020000040000fa
:04004400860300002f
:020000040000fa
:04004800860300002b
:020000040000fa
:04004c008603000027
:020000040000fa
:040050008603000023
:020000040000fa
:040054004203000063
:020000040000fa
:04005800860300001b
:020000040000fa
:04005c008603000017
:020000040000fa
:040060008603000013
:020000040000fa
:04006400860300000f
:020000040000fa
:04006800860300000b
:020000040000fa
:04006c008603000007
:020000040000fa
:040070008603000003
:020000040000fa
:0400740086030000ff
:020000040000fa
:0400780086030000fb
:020000040000fa
:04007c0086030000f7
:020000040000fa
:0400800086030000f3
:020000040000fa
:0400840086030000ef
:020000040000fa
:0400880086030000eb
:020000040000fa
:04008c0086030000e7
:020000040000fa
:0400900086030000e3
:020000040000fa
:0400940086030000df
:020000040000fa
:0400980086030000db
:020000040000fa
:04009c0086030000d7
:020000040000fa
:0400a00086030000d3
:020000040000fa
:0400a40086030000cf
:020000040000fa
:0400a80086030000cb
:020000040000fa
:0400ac0086030000c7
:020000040000fa
:0400b00086030000c3
:020000040000fa
:0400b40086030000bf
:020000040000fa
:0400b80086030000bb
:020000040000fa
:0400bc0086030000b7
:020000040000fa
:0400c00086030000b3
:020000040000fa
:0400c40086030000af
:020000040000fa
:0400c80086030000ab
:020000040000fa
:0400cc0086030000a7
:020000040000fa
:0400d00086030000a3
:020000040000fa
:0400d400860300009f
:020000040000fa
:0400d800860300009b
:020000040000fa
:0400dc008603000097
:020000040000fa
:0400e0008603000093
:020000040000fa
:0400e400860300008f
:020000040000fa
:0400e800860300008b
:020000040000fa
:0400ec008603000087
:020000040000fa
:0400f0008603000083
:020000040000fa
:0400f400860300007f
:020000040000fa
:0400f800860300007b
:020000040000fa
:0400fc008603000077
:020000040000fa
:040100008603000072
:020000040000fa
:04010400860300006e
:020000040000fa
:04010800860300006a
:020000040000fa
:04010c008603000066
:020000040000fa
:040110008603000062
:020000040000fa
:04011400860300005e
:020000040000fa
:04011800860300005a
:020000040000fa
:04011c008603000056
:020000040000fa
:040120008603000052
:020000040000fa
:04012400860300004e
:020000040000fa
:04012800860300004a
:020000040000fa
:04012c008603000046
:020000040000fa
:040130008603000042
:020000040000fa
:04013400860300003e
:020000040000fa
:04013800860300003a
:020000040000fa
:04013c008603000036
:020000040000fa
:040140008603000032
:020000040000fa
:04014400860300002e
:020000040000fa
:04014800860300002a
:020000040000fa
:04014c008603000026
:020000040000fa
:040150008603000022
:020000040000fa
:04015400860300001e
:020000040000fa
:04015800860300001a
:020000040000fa
:04015c008603000016
:020000040000fa
:040160008603000012
:020000040000fa
:04016400860300000e
:020000040000fa
:04016800860300000a
:020000040000fa
:04016c008603000006
:020000040000fa
:040170008603000002
:020000040000fa
:0401740086030000fe
:020000040000fa
:0401780086030000fa
:020000040000fa
:04017c0086030000f6
:020000040000fa
:0401800086030000f2
:020000040000fa
:0401840086030000ee
:020000040000fa
:0401880086030000ea
:020000040000fa
:04018c0086030000e6
:020000040000fa
:0401900086030000e2
:020000040000fa
:0401940086030000de
:020000040000fa
:0401980086030000da
:020000040000fa
:04019c0086030000d6
:020000040000fa
:0401a00086030000d2
:020000040000fa
:0401a40086030000ce
:020000040000fa
:0401a80086030000ca
:020000040000fa
:0401ac0086030000c6
:020000040000fa
:040208008603000069
:020000040000fa
:04020c008603000065
:020000040000fa
:040210008603000061
:020000040000fa
:04021400860300005d
:020000040000fa
:040218008603000059
:020000040000fa
:04021c008603000055
:020000040000fa
:040220008603000051
:020000040000fa
:04022400860300004d
:020000040000fa
:040228008603000049
:020000040000fa
:04022c008603000045
:020000040000fa
:040230008603000041
:020000040000fa
:04023400860300003d
:020000040000fa
:040238008603000039
:020000040000fa
:04023c008603000035
:020000040000fa
:040240008603000031
:020000040000fa
:04024400860300002d
:020000040000fa
:040248008603000029
:020000040000fa
:04024c008603000025
:020000040000fa
:040250008603000021
:020000040000fa
:04025400860300001d
:020000040000fa
:040258008603000019
:020000040000fa
:04025c008603000015
:020000040000fa
:040260008603000011
:020000040000fa
:04026400860300000d
:020000040000fa
:040268008603000009
:020000040000fa
:04026c008603000005
:020000040000fa
:040270008603000001
:020000040000fa
:0402740086030000fd
:020000040000fa
:0402780086030000f9
:020000040000fa
:04027c0086030000f5
:020000040000fa
:0402800086030000f1
:020000040000fa
:0402840086030000ed
:020000040000fa
:0402880086030000e9
:020000040000fa
:04028c0086030000e5
:020000040000fa
:0402900086030000e1
:020000040000fa
:0402940086030000dd
:020000040000fa
:0402980086030000d9
:020000040000fa
:04029c0086030000d5
:020000040000fa
:0402a00086030000d1
:020000040000fa
:0402a40086030000cd
:020000040000fa
:0402a80086030000c9
:020000040000fa
:0402ac0086030000c5
:020000040000fa
:0402b00086030000c1
:020000040000fa
:0402b40086030000bd
:020000040000fa
:0402b80086030000b9
:020000040000fa
:0402bc0086030000b5
:020000040000fa
:0402c00086030000b1
:020000040000fa
:0402c40086030000ad
:020000040000fa
:0402c80086030000a9
:020000040000fa
:0402cc0086030000a5
:020000040000fa
:0402d00086030000a1
:020000040000fa
:0402d400860300009d
:020000040000fa
:0402d8008603000099
:020000040000fa
:0402dc008603000095
:020000040000fa
:0402e0008603000091
:020000040000fa
:0402e400860300008d
:020000040000fa
:0402e8008603000089
:020000040000fa
:0402ec008603000085
:020000040000fa
:0402f0008603000081
:020000040000fa
:0402f400860300007d
:020000040000fa
:0402f8008603000079
:020000040000fa
:0402fc008603000075
:020000040000fa
:040300008603000070
:020000040000fa
:04030400860300006c
:020000040000fa
:040308008603000068
:020000040000fa
:04030c008603000064
:020000040000fa
:040310008603000060
:020000040000fa
:04031400860300005c
:020000040000fa
:040318008603000058
:020000040000fa
:04031c008603000054
:020000040000fa
:040320008603000050
:020000040000fa
:04032400860300004c
:020000040000fa
:040328008603000048
:020000040000fa
:04032c008603000044
:020000040000fa
:040330008603000040
:020000040000fa
:04033400860300003c
:020000040000fa
:040338008603000038
:020000040000fa
:04033c008603000034
:020000040000fa
:040340008603000030
:020000040000fa
:04034400860300002c
:020000040000fa
:040348008603000028
:020000040000fa
:04034c008603000024
:020000040000fa
:040350008603000020
:020000040000fa
:04035400860300001c
:020000040000fa
:040358008603000018
:020000040000fa
:04035c008603000014
:020000040000fa
:040360008603000010
:020000040000fa
:04036400860300000c
:020000040000fa
:040368008603000008
:020000040000fa
:04036c008603000004
:020000040000fa
:040370008603000000
:020000040000fa
:0403740086030000fc
:020000040000fa
:0403780086030000f8
:020000040000fa
:04037c0086030000f4
:020000040000fa
:0403800086030000f0
:020000040000fa
:0403840086030000ec
:020000040000fa
:0403880086030000e8
:020000040000fa
:04038c0086030000e4
:020000040000fa
:0403900086030000e0
:020000040000fa
:0403940086030000dc
:020000040000fa
:0403980086030000d8
:020000040000fa
:04039c0086030000d4
:020000040000fa
:0403a00086030000d0
:020000040000fa
:0403a40086030000cc
:020000040000fa
:0403a80086030000c8
:020000040000fa
:0403ac0086030000c4
:020000040000fa
:100400006fcf20000eff20000e01880000000000ca
:10041000000020000000e000020032000001200087
:100420002002880014000700ba0007000000e00066
:1004300003003a008045210001002000020037003f
:100440000000200001002000810f70000100320038
:1004500014000700000020000000e000020032004d
:100460000000020000000000621502000000000011
:100470000040da000000fe004440a90040062000d1
:100480000000e0000300320000002000a00188000e
:100490004440a800000006008a1f78008b1f7800e7
:1004a0000000060091018800800478000000eb0045
:1004b0001a003700e284440032a0b4009905ba0063
:1004c000e284440032a0b4009906ba00e2844400f9
:1004d00032a0b4000006eb00476fde00fd07b2005b
:1004e000636ce10003003a00ebff07000000eb0043
:1004f0000a003700606ce10004003a00005deb0088
:100500008b05e900fdff3e00040037006168e10053
:10051000010032000086eb000b00070019c7ba008b
:100520001905ba000e04e00003003a000a00e000da
:10053000e0ff3a0000000600fe07b2009e018800be
:100540008a047800f5ff3700395dba008b05e900b1
:100550000c003200295dba008b05e900080032006a
:100560000c00e00003003a00e284440032a0b40032
:10057000f5ff370019ddba008b05e900faff3a00f4
:100580008904e800e184440032a0b40000000600c1
:1005900000000000000000003600f800809fbe0050
:1005a000821f78000000fa008460a9000021ef009b
:1005b000b06580000000e800b0658800b16580008b
:1005c0000071220000017800110009008280d8002b
:1005d0008000fd000000e0000d003a0010c0b300f4
:1005e000b5ecb70081658000b0032000808f50001b
:1005f00002003a00b02cef00030037008065800055
:100600000000e80080658800ae2cef00b62cef00fb
:10061000b2658000d0cc2c000010b8004308de008a
:100620006a00b90000007800000051000000e000fe
:1006300009003a0071658000703e2000808f5000f4
:1006400002003a00ae2cef00030037007065800016
:100650000000e80070658800906580000000e00000
:1006600003003200906580000000e900906588007a
:100670000080fa004f0178004f00be003600f900fc
:1006800000400600809fbe00821f78000000fa0034
:100690003011800000407800b4ecb700b4ccbf004b
:1006a0000004e0001400320011408000f03f200000
:1006b000808f500001003a000228ef0010408000b7
:1006c00042cb200012417800418020008100400090
:1006d000824878000000e800104088001140800047
:1006e00040802000008040008040eb0001487800fe
:1006f00010c0b30014ecb7008560a9000080fa00b8
:100700004f0178004f00be00004006000040da00b4
:100710000000fe00000005008001780002003700a4
:10072000815978000201e9000200e000fcff3a0074
:1007300000000600020037000204e0000b00320057
:10074000810178000002780030417800b14f5100fb
:10075000f9ff32001000200014427800934f52003d
:10076000030031000080eb00000006000000eb00f9
:100770000000060080007800010178003104e000ec
:10078000fdff3a000000510000000600881f7800bd
:100790000204780008017800d60107000800400034
:1007a0004f047800000006000000fa00881f78005f
:1007b00000047800ea8157003fb99700880078006c
:1007c000603c2000070007000000e0000200350048
:1007d0008040eb00017478004f0478000080fa003c
:1007e000000006006200fa00889fbe008a1f7800a1
:1007f0000005780081047800020478008300780006
:1008000080f92f000f004000b80307009a979f005f
:10081000a9979f000000eb00b09f9f001885fb0088
:100820008a04fb000a05ea004f55de005002200052
:10083000808f54000d003200e10f55000b003a008c
:100840000a017800880078002f9097009f91970008
:1008500003000100a0979f000000e0008e0032001e
:100860003f9897000000e800b09f9f000a044400f2
:1008700050022000808f5400040032000900e00084
:10088000e6ff3a003f989700840037000000eb0035
:10089000909f9f00809f9f00f0979f00e0979f0090
:1008a000d0979f00c0979f000700370001cf20001e
:1008b000010050000000400041ce2000610078009f
:1008c000df98970001007000d09f9f008804780097
:1008d00009047800384578008a00fb0000cf20002a
:1008e0008b0107000000e000f0ff3a00a1c2b30056
:1008f000814f55000e003a00cf8897000180e90033
:10090000c08f9f0010007800c09f9f000000e00093
:1009100005003d000000ea00c09f9f005f9897001f
:100920000020a000d09f9f000904e8000f003700be
:10093000c09f9f000000eb0005003700f2ff27007a
:10094000820f5000020032006a01b90002804000ac
:100950000904780088047800b900fb000103b100a5
:10096000e98f5000f5ff3600c09f9f00e0c2b30042
:10097000984f1000020032000080eb001900370091
:10098000a0c2b300d84f100007003a00cf889700ec
:100990000180e900c08f9f0010007800a09f9f0099
:1009a0000804e800100037000000eb00a09f9f0043
:1009b0008800780005003700f3ff2700830f500000
:1009c000020032006a02b90004004100010478000c
:1009d000880078003101fb000203b100e90f5100eb
:1009e000f5ff3600a09f9f00984478008900fb0027
:1009f000c0cd2000460107000000e00002003200e8
:100a00000804e800010037008044eb00c97f9f0024
:100a100080c6b30080cf540004003a0098cf140081
:100a20000a003a006640500006003700c0c6b30016
:100a300080cf540005003a0098cf140003003a001c
:100a400065404000c07f9f000804e8001801fb00db
:100a5000e3fb2f008f81410081f92f008f80400040
:100a6000a0f92f000f004000100007000000e00078
:100a700009003a00e1fb2f008f804000a0f92f0011
:100a80000f0040005d0207000000e000020035009a
:100a90000804e80061ff37000080eb004f05780094
:100aa0004f04be000080fa0000000600889fbe00d0
:100ab0008a9fbe00e4c6b300844f5100be003200de
:100ac00010003c006b425200844f5100180032006d
:100ad00005003c0054c2b300844f5100f6003200c0
:100ae00084c5b3000f00370044c6b300844f5100e3
:100af0001400320065424200844f5100f1003a0078
:100b00001000370004c7b300844f5100dd003200ed
:100b10005600350065424200844f510053003200b8
:100b200063424200844f5100e6003a004f00370014
:100b30001181e90082087800f000900012417800ed
:100b4000de00370020629000c5c6b300854f52001a
:100b500007003a009102780064825200840878000d
:100b60001402be004fabde0086037800140037008d
:100b700015c7b300854f520003003a0011047800f6
:100b80006802540005003700a5c6b300854f520027
:100b900006003a00910478006882540084087800c6
:100ba0005403be004402be00050037001182e90074
:100bb0008408780014027800cfa2de00612bb9000f
:100bc0000498be000690be00a060900088c6b300e6
:100bd00088cf50000d00320028c6b30088cf5000e7
:100be00004003a000402fb00cfa2de00612bb90032
:100bf0000800370048c7b30088cf50000300320018
:100c00006644440088cf500004003a00cfa2de00c2
:100c1000612bb9000498be000690be003002be00f1
:100c20002003be00f0009000e00f5200e08f5a0059
:100c3000e00f5b00e08f5b0002003d00d4c2b30018
:100c400008003700001290000418a30002003200d0
:100c5000b4c2b300030037000408a30051003200ff
:100c600004c2b30084f178004c0037002062900089
:100c7000c5c6b300854f520008003a001105780040
:100c800064025500840878001404be006055b80062
:100c90000802be000a03be001400370015c7b300e7
:100ca000854f520003003a00910478006882540096
:100cb00005003700a5c6b300854f520006003a0074
:100cc0001105780068025500840878005403be00be
:100cd0004402be00050037001182e9008408780054
:100ce000140278008002eb006033b8000498be0064
:100cf0000690be00a060900088c6b30088cf500068
:100d00000d00320028c6b30088cf500004003a001e
:100d10000482fb008002eb006033b800080037005b
:100d200048c7b30088cf5000030032006644440037
:100d300088cf500004003a008002eb006033b80016
:100d40000498be000690be00801090000138a300f9
:100d5000140032003002be002003be00e00f52003b
:100d6000e08f5a00e00f5b00e08f5b000d00320067
:100d700081c7b300814f51000300320081c5b30029
:100d8000814f510007003a00f000900004c3b30007
:100d900084f178008100e80082f178008100e800a9
:100da00071009800f000900081814100630098007c
:100db000824078003e003700a0619000c4c6b300b6
:100dc0001181e90084cf5100220032000a003c006a
:100dd0006442520084cf51002500320004c2e80072
:100de00084cf5100130032006842520084cf51007a
:100df0001e003a000a00370044c7b30084cf5100f8
:100e00001b0032006642420084cf510018003200bd
:100e10006942520084cf510014003a0005003700a7
:100e2000820878009200780040589000804878004e
:100e30002c0037008208780092007800600a900049
:100e4000cfa2de00612bb9008498be008690be0060
:100e50002400370082087800920078006009900032
:100e6000cf91de008288be001e0037001181e900ac
:100e7000820878009200780060089000800878006e
:100e8000180037001181e90082087800120278000a
:100e9000cfa2de00612bb9000498be000690be0010
:100ea000f0009000818141006300980081c7b30089
:100eb000230007000b003700f000900082f178005b
:100ec00006003700f0009000818141000204e0003c
:100ed00001003a0052c2b300824978008100e80064
:100ee000710098000000eb004f05be004f04be00eb
:100ef000000006008001780002003700b159780038
:100f00000201e9000200e000fcff3a0000000600d8
:100f1000020037000304e000060032000001780000
:100f200002007800b041780081cf5100f9ff3a000b
:100f3000010037000001eb0002007800000006000d
:100f4000fc874700889fbe008a9fbe008c9fbe0022
:100f50008e1f78000006780080c5b30080cf500057
:100f60000a0032007740400080cf50000a00320073
:100f70006940400080cf50000b003200b0cc200010
:100f800080bf9f00ae0020000a003700a2cb2000e7
:100f900082bf9f0006003700b3cc200083bf9f00b4
:100fa0008e00200003003700b4cc200084bf9f00d7
:100fb0000e0120003c02be002c03be000605be0050
:100fc0000404be0040c6b30080cf500003003200ce
:100fd0006540400080cf50000b003a00e00f520007
:100fe000e08f5a00e00f5b00e08f5b0006003d00e1
:100ff0006000b8006011b8000404500085845800f7
:101000000605590087855900e80f57000400320093
:1010100040002000f00f570038003a000100370070
:1010200030002000e00f5400e08f5c00e00f5d0016
:10103000e08f5d0004003a00dc0890008d01200084
:101040000100e000060032008e00e90088806000a8
:101050008fba9700e5c07800f1ef9f007d01200076
:10106000800078008100e900050033008b05d10085
:101070000a85d3008984d3000884d300f9ff3700a0
:10108000089ebe000a96be00120037008d06e900d9
:101090008e00e900848060000fb99700e2c17800fb
:1010a00082fd2f000f01410003f17e0080007800d7
:1010b0008100e900050033008783d1000683d30057
:1010c0008582d3000482d300f9ff3700049ebe005e
:1010d0000696be003c02be002c03be00e00f52008c
:1010e000e08f5a00e00f5b00e08f5b008b00340064
:1010f0000d00e000e5ff3c00880037002c60900008
:1011000081c6b300814f50000b00320006003c0046
:101110000004e00008003200e6c05000814f50009b
:101120004e003a0004003700c1c6b300814f5000a2
:101130004a003a00210037000800e00004003a00ad
:101140005c0890008d0120000000e00006003200e5
:10115000110009000e84d8000fb99700e2c0780092
:10116000f1ef9f007d012000110009000e84d800de
:101170000a003700110009000e04d8008d06e900ae
:101180000e81b900020454008fb8970061417c00c1
:1011900081fd2f008f80400082f07e0000047800e7
:1011a0000800e000020032000d00e000f1ff3c000a
:1011b000cfc4de00614db90025003700e00f5400b8
:1011c000e08f5c0004003a005c0890008d01200074
:1011d0000000e000070032006171b9000800be00a5
:1011e000630107008fb99700e3417800f3ef9f0098
:1011f0007d0120006171b9000800be004c010700ac
:101200000b0037006171b9000800be00390107000a
:101210008d06e90000f1b900020454000fba9700ee
:10122000e4427c0084fd2f000f02420005f27e00a4
:101230000004be00e00f5000e08f580002003200b2
:101240000d00e000efff3c004fcdde008a05780086
:10125000089ebe000a96be0030003700e00f540022
:10126000e08f5c00e00f5d00e08f5d0004003a005d
:101270005c0890008d0120000000e00009003200b1
:101280006172b900612bb9000800be000a01be00fe
:10129000da0107000fba970064427800f4ef9f006c
:1012a0007d0120006172b900612bb9000800be0009
:1012b0000a01be00ca0107000d0037006172b900c3
:1012c000612bb9000800be000a01be00cf01070073
:1012d0008d06e90000f2b900040454008fba9700ab
:1012e00065427c0085fd2f008f82420084f27e00e3
:1012f000009ebe000296be003c04be002c05be004f
:10130000e00f5400e08f5c00e00f5d00e08f5d00b7
:10131000020034000d00e000e8ff3c00e80f570039
:1013200010003a000c1090000038a3000d003200ad
:10133000f78f560006003e0085fd2f008f82420089
:10134000e5c07e0000c3b30080cf5000050032002e
:101350008d06e90002c3b30081fd2f008f8040009d
:1013600082f07e0078811600120e98006c009000ca
:1013700083fd2f008f8141008d804100ddfe07003d
:101380001c089000dc089000810f500006003d0012
:1013900000805000000e98000c1090000040a1004a
:1013a000001698000f0037000100e0000d003d001e
:1013b0008c109000f4806000f08f500009003a001b
:1013c0007c099000fc009000810051000c09900005
:1013d00082805000008050004240a900010034008b
:1013e000000e98004f0778004f06be004f05be0064
:1013f0004f04be00cf01b100000006000400fa0057
:10140000889fbe008a9fbe008c1f78000004780071
:1014100001067800f80d9000780090008085550056
:1014200008089000808555001808900080855500b8
:101430002808900080855500380890008085550068
:1014400048089000808555000002220090bf9f0050
:1014500000032300a0bf9f00081090000028a300f5
:1014600015003a000b00e000130034000b05780073
:101470008a047800e20f55000100360029002000a0
:10148000c801900009017800ee80570058009000d4
:1014900003000100500498000000e0008c003200be
:1014a0006808900009004000600c9800090555008c
:1014b0004240a900eeff3c00780190000200e000ed
:1014c0000c003400c80190008c0078005800900097
:1014d00003000100500498008080eb000000e00051
:1014e0007c003200e8089000780090000080400006
:1014f000600c9800880c90000900e0001100340096
:1015000009057800e28f5400010036002a0020000f
:10151000c80190000a017800ec8057005800900044
:1015200003000100500498000000e0006800320051
:10153000680890000a004000600c98008a845400fb
:10154000edff3700180990000200e0000c003400a5
:10155000c8019000e80090005800900003000100ce
:10156000500498008080eb000000e0005900320039
:10157000e80890001808900000804000600c980077
:10158000a80c90000900e000110034000905780063
:10159000e28f5400010036002a002000c8019000ac
:1015a0000a017800ec805700580090000300010009
:1015b000500498000000e0004500320068089000e8
:1015c0000a004000600c98008a845400edff370048
:1015d000380990000200e0000e003400e80090009e
:1015e0001808900080804000c801900058009000ca
:1015f00003000100500498008080eb000000e00030
:1016000034003200e8089000380890000080400064
:10161000600c9800c80c90000900e0001100340034
:1016200009057800e28f5400010036002a002000ee
:10163000c80190000a017800ec8057005800900023
:1016400003000100500498000000e0002000320078
:10165000680890000a004000600c98008a845400da
:10166000edff3700081090008000eb000028a30079
:10167000180032000b00e000160034008b047800e4
:1016800009057800e28f5400010036002a0020008e
:10169000c80190000a017800ee80570058009000c1
:1016a00003000100500498000000e0000800320030
:1016b000680890000a004000600c98008a8454007a
:1016c0004240a900eeff3c008000eb000100370023
:1016d0008080eb00010078004f0678004f05be00c7
:1016e0004f04be000080fa000000060001087800e8
:1016f00000000600839f68000100e00002003d003a
:1017000060001000e08018000300e00002003d00cf
:1017100060011100e0811900050007004f00e000a2
:1017200002003b0060001000e0801800000006008e
:101730006022b800060220000000d0008180d200a4
:101740000482d2008582d2000000a0000202520072
:1017500083825a00030031000202420083824a0061
:101760000000a1000603e900f3ff3a0000000600b4
:10177000efff07000400be0000000600889fbe00c7
:101780008a9fbe0030044200b0844a0030054b00fe
:1017900090854b006000b1000898be000a90be0022
:1017a0000440e10005c8e10006d0e10007d8e100ef
:1017b00002003100680040001008e8004f05be003c
:1017c0004f04be0000000600889fbe008a9fbe0036
:1017d0003004be002005be000418540005985c00cb
:1017e00006185d0007985d00110020000440e1002c
:1017f00005c8e10006d0e10007d8e100010039008a
:101800008000eb00108810004f05be004f04be00a2
:10181000000006001200fa00889fbe008a9fbe00ea
:101820008c9fbe00e0b79f00f1b79f0082bf9f0072
:1018300093bf9f000605be000404be000000eb003d
:10184000d0b79f00c0b79f00b0b79f00a0b79f0060
:1018500090b79f000006eb005fb19700cfb09700f4
:10186000820141003fb097000200e00004003d000b
:10187000370007007e805700c0ff070003003700d5
:10188000330007007e805700cfff0700dfb69700c8
:101890000d00e0000c0035006fb29700ffb297001a
:1018a0000fbb97009fbb9700100020000100200095
:1018b0006011b8000002720081827200020373009e
:1018c000838373001b0007000c06e800010420005e
:1018d000810f5600e0ff3a000d00e00004003d00db
:1018e0000802be000a03be007e805700a3ff070067
:1018f0005fa897000000e00005003a001fb29700c3
:10190000afb297003fb39700cfb39700090007002d
:101910006fb09700ffb097000fb997009fb997007d
:101920004f06be004f05be004f04be000080fa0007
:10193000000006000100070000000600a4b79f0099
:10194000b5b79f00c6b79f00d7b79f00000006003d
:101950004f09de0082817100b3b79f004f01de00a6
:101960008180400082807000a1b79f008fb09700f7
:101970004f09de00000040000200700090b79f0099
:101980007fa897004f01de008180400082807000b8
:1019900081b79f000d0007004f3ade0000004000b5
:1019a00004007000f0af9f0008000700040242002e
:1019b00085824a0006034b0087834b00dfff070048
:1019c0000802be000a03be00000006002fb2970006
:1019d000bfb297004fb39700dfb397000000060037
:1019e000881f780018002000881f780089ff0700f2
:1019f0008f87e9004f04780000000600801feb008d
:101a000084ff07008f87e90000000600889fbe0062
:101a10008a9fbe00e00f5000e08f5800e00f590091
:101a2000e08f59000c003d006044b8006055b800dc
:101a30000000540081805c0002015d0083815d0034
:101a4000180020001500070008003d0018000700de
:101a50000004eb00050037000004eb000f00070056
:101a600002003d001200070018002000dcff070004
:101a70000800e000060032006022b8006033b800c1
:101a80000000520081805a0002015b0083815b00ec
:101a90004f05be004f04be0000000600e00f5200dc
:101aa000e08f5a00e00f5b00e08f5b000000060053
:101ab0006044b8006055b8000402540085825c00a0
:101ac00006035d0087835d0000000600889fbe005e
:101ad0008a9fbe008c1f7800e00f5000e08f5800f6
:101ae000e00f5900e08f59000d003d006044b80040
:101af0006055b8000000540081805c0002015d0068
:101b000083815d001c0020000820e10009a8e1009d
:101b10000ab0e1000bb8e1000d003d0008003700fd
:101b20000006eb00e00f5200e08f5a00e00f5b0070
:101b3000e08f5b0006003d006044b8006055b800cf
:101b40000402540085825c0006035d0087835d000b
:101b5000aaff07000c00e000060032006022b80077
:101b60006033b8000000520081805a0002015b001f
:101b700083815b004f0678004f05be004f04be0016
:041b8000000006005b
:020000040000fa
:101b8400534500004e4400005f44000041540000ef
:101b9400412c000030000000534500004e4400007a
:101ba4005f44000041540000412c0000310000005b
:101bb400534500004e4400005f44000041540000bf
:101bc400412c000032000000434d0000443e000060
:101bd4000053000054520000454100004d5f0000d6
:101be4004f500000454e0000004100004f4b0000e4
:101bf400002c00000044000049530000434f000043
:101c04004e4e000045430000540000002400000034
:101c140024240000004600000d000000432c0000b6
:101c2400302c0000000d0000004b00002c3100009f
:101c34000d0000002d2d00002d0d000000000000ff
:081c4400256900002c000000de
:020000040000fa
:101c4c000200fa00e2c4a900c8c2a9000000eb001f
:101c5c00000f7800090037001e0078006500b900fd
:101c6c008000780040c0200000804000520020001e
:101c7c008000eb00a5fa07001e0fe8001e0078009c
:101c8c00e20f5000f4ff3400024020008000eb0013
:101c9c00408020009dfa0700146cef00136cef00dd
:101cac00156cef000228ef0010c0b30018ecb70061
:101cbc0010c0b30016ecb70010c0b30017ecb7009f
:101ccc000028ef000080fa00000006000200fa0075
:101cdc0014ccbf000004e0002e003200146cef00a6
:101cec004180200020dc2800150107000004e000e2
:101cfc000700320050002000004088000240200005
:101d0c008000eb004080200080fa07000228ef00e2
:101d1c0041802000e0dc2800090107000004e000fd
:101d2c00100032001000200000408800b7010700ae
:101d3c00024020008000eb004080200073fa070076
:101d4c000228ef0010c0b30016ecb70010c0b300af
:101d5c0017ecb70010c0b30018ecb700136cef0011
:101d6c00156cef0041802000a0dd2800f400070076
:101d7c000004e00007003200300020000040880022
:101d8c00024020008000eb00408020005ffa07003a
:101d9c000228ef00004080000000e000b800320094
:101dac0000408000e50f500003003a00c601070018
:101dbc000028ef00b200370000408000e10f500017
:101dcc0050003a0016ccbf000004e00009003200bd
:101ddc004180200060de2800d90007000004e000ec
:101dec0004003200166cef001100200020002000cf
:101dfc00a500070017ccbf000004e000090032006a
:101e0c004180200020c92000cd0007000004e00024
:101e1c0004003200176cef0011002000300020008d
:101e2c009900070018ccbf000004e0000c00320041
:101e3c0041802000b0de2800c10007000004e00053
:101e4c0007003200186cef00024020008000eb000d
:101e5c00408020002dfa070010c0b30013ecb7002f
:101e6c0013ccbf000004e0000300320020dc28008b
:101e7c0060020700136cef0018ccbf000004a20036
:101e8c000004e00015003200408020000001070033
:101e9c000004e00011003200ccc2a8005b01070076
:101eac00024020008000eb004080200017fa070061
:101ebc000228ef0010c0b30016ecb70010c0b3003e
:101ecc0017ecb70010c0b30018ecb700136cef00a0
:101edc00156cef00200020000040880015ccbf00de
:101eec000004a2000004e0006500320010c0b30042
:101efc0015ecb7008000eb0010002000620007001a
:101f0c005f00370000408000e20f500059003a009b
:101f1c0016ccbf000004e000090032004180200014
:101f2c0060de2800860007000004e0000400320098
:101f3c00166cef008000eb00200020005200070020
:101f4c0017ccbf000004e0000900320041802000e3
:101f5c00a0c620007a0007000004e0000400320054
:101f6c00176cef008000eb003000200046000700eb
:101f7c0018ccbf000004e0000800320041802000b3
:101f8c00b0de28006e0007000004e0000300320001
:101f9c00186cef0010c0b30013ecb70013ccbf00eb
:101fac000004e0001c0032004180200070df28009b
:101fbc00630007000004e000170032000000eb0093
:101fcc00000f78000900370042c020001e00780086
:101fdc006500b90000007800000041001e0fe80009
:101fec0004020700b0df2800020207001e00780080
:101ffc006500b900800078002040200080804000ff
:10200c002080200000804000104078000004e00098
:10201c00edff3a000028ef0015ccbf000004a20031
:10202c000004e0000500320010c0b30015ecb7004e
:10203c008000eb00100020001300070041802000fe
:10204c00d0df28003e0007000004e0000c00320046
:10205c00024020008000eb0040802000abf907001c
:10206c000228ef008000eb00300020000600070083
:10207c000300370000408000e30f500000003200e6
:10208c000080fa00000006000400fa00000f78003f
:10209c00110798001e007800e10f500007003a006d
:1020ac0080e02800d3010700c00d20004b01070081
:1020bc00a0e02800cf0107001f0037001e007800a9
:1020cc00e20f500003003a00d0e02800c9010700dd
:1020dc00190037001e007800e30f50000a003a0088
:1020ec001e009000e10f500007003a0000e12800ac
:1020fc00c001070020c92000be01070050e12800e4
:10210c00bc0107000c0037001e007800e30f5000e4
:10211c0009003a001e0090000000e00006003a00a2
:10212c0000e12800b3010700a0c62000b1010700a0
:10213c0050e12800af0107000080fa000000060003
:10214c000e00fa00889fbe008a1f78005007980086
:10215c00610798000f0478000f0078008004780065
:10216c005e00900080f90700800078008100e90093
:10217c00310798000000e8000000e8000000d100e2
:10218c00800040000f007800818747000000e800c5
:10219c000000d10000004000400798005e00900055
:1021ac0071f907000000e900000f78000000eb0057
:1021bc0020079800240037000000eb00100798005f
:1021cc000d0037009e0090002e0090000080400013
:1021dc00ee00900000804000904078004e0190008e
:1021ec001e00900000004100014878001e00900085
:1021fc000000e800100798001e0590005e0090009b
:10220c0059f90700800f5500eeff3900ce00900001
:10221c001e009000008040008040eb0001487800d8
:10222c004e009000de0090003ff907000000e00037
:10223c0002003a0010c0b3000f0037002e009000cf
:10224c000000e800200798001e007800ee009000c7
:10225c0000804000104078000080fb000000ea0085
:10226c004f00de00004078001e0fe8000004e00084
:10227c00d1ff3a000040eb0089077800880778000e
:10228c004f0578004f04be000080fa0000000600e5
:10229c000c00fa00500798000000eb004007980073
:1022ac000000eb00000f78000b0037009e80e80068
:1022bc00208020000080400090407800c0c2b30015
:1022cc0080cf500003003a004e0090000000e80060
:1022dc00400798001e0fe8009e80e8002080200038
:1022ec0000804000104078000004e000efff3a004e
:1022fc004e009000e20f500002003c000040eb004a
:10230c00300037000000eb00200798000000eb00c5
:10231c00000f7800270037000000eb003007980012
:10232c00ae00900011079800160037001e009000b8
:10233c008080e80020802000008040001041780060
:10234c001e0078006500b900800078003e00900007
:10235c008080400040c0200000804000024878008f
:10236c003e0090000000e800300798002e0090001e
:10237c000000e800200798001e0090000000e80014
:10238c00100798001e0090008080e800208020003c
:10239c000080400090407800c0c2b30080cf500055
:1023ac00e2ff3a002e0090000000e80020079800a1
:1023bc001e0fe8001e007800e20f5000d6ff34001c
:1023cc0010c0b3000080fa00000006000000fa0004
:1023dc00024020008000eb0040802000cbf807007a
:1023ec000228ef00136cef00156cef0010c0b30067
:1023fc0018ecb70010c0b30016ecb70010c0b30057
:10240c0017ecb7000080fa00000006000000fa008c
:10241c008000eb00100020001bff070000000000f4
:10242c004180200060de280045ff07000004a20068
:10243c000004e000faff3a0070e12800ed0007000c
:10244c000000000041802000d0df28003cff070086
:10245c000004a2000004e000faff3a00c0e12800ea
:10246c00e4000700024020008000eb0040802000c8
:10247c00a6f807000228ef000080fa000000060012
:10248c000000fa00450007006a000700be000700c4
:10249c00ebfd0700000420004401070000022000af
:1024ac0042010700ae2cef00b02cef00b56cef0032
:1024bc0000c3b300b4ecb7000002200061010700b8
:1024cc000080fa00000006000200fa000000eb0099
:1024dc00000f78000002200062010700800220003b
:1024ec00000f7800010037001e0fe9001e00780075
:1024fc000000e000fcff3a004001200094000700bf
:10250c0050658800a00020009100070040658800fd
:10251c00b00020008e0007003065880050658000f8
:10252c00801f780020e22800801f780020c4200043
:10253c009af80700e487570020c42000ad0007007c
:10254c0040658000801f780020e22800801f780002
:10255c0020c4200091f80700e487570020c4200015
:10256c00a400070030658000801f780020e228005e
:10257c00801f780020c4200088f80700e4875700eb
:10258c0020c420009b000700000220002d01070042
:10259c0010c0b3000080fa00000006000000fa0032
:1025ac000021ef00000028002008880050182000af
:1025bc001008880021058000f0ff280000806000d2
:1025cc0000c0a000200588008460a9009460a800c9
:1025dc0005e1a9000080fa00000006000600fa00e0
:1025ec00200798000000eb00000f78000b0037006c
:1025fc000000eb0010079800030037001e0090004d
:10260c000000e800100798009e009000f0f92000f0
:10261c00808f5000f9ff34001e0fe8002e00900050
:10262c009e007800808f5000f1ff35000080fa008a
:10263c00000006000000fa00111a8000f0ff2300d1
:10264c0000806000101a880000c0eb0044e3b70063
:10265c00211a8000f00f2e008080600000f0200016
:10266c0001007000201a8800011a8000f0f02f0081
:10267c0000806000001a8800011a8000f0cf2f0043
:10268c0000806000001a8800111a800030f82f00ba
:10269c0000806000101a880041e3a8001127800018
:1026ac0000102600010070001027880041168000e1
:1026bc000010260001007000401688000080fa000f
:1026cc00000006000000fa004023a800803e200015
:1026dc00c065880003003700c06580000000e90079
:1026ec00c0658800c06580000000e000faff3a0079
:1026fc000080fa00000006000000fa004023a90048
:10270c000080fa00000006000000fa00001a8000a9
:10271c0000407800614060000080fb0000f0a700e2
:10272c000000ea000000ea004f00de0000407800e4
:10273c000080fa00000006000200fa00000f78008a
:10274c009e007800411a88000080fa000000060004
:10275c000200fa00000f78001e007800f6ff070058
:10276c00d8ff0700e4ff070000000000e6ff0700a9
:10277c000004a2000004e000fcff3a0000188000f6
:10278c000080fa00000006000000fa00c842a80011
:10279c00c8e2a900e244a900e2e4a9002022ef006b
:1027ac002062a8002222ef00700620004011880051
:1027bc0041058000f0ff28000080600000c0a000f0
:1027cc00400588009560a8008560a90021e2a8005a
:1027dc002342a8000080fa00000006000200fa0064
:1027ec00004f78001e80fb00201188000080fa004a
:1027fc00000006000400fa00100798000000eb002f
:10280c00000f78000d00370000000000111180004f
:10281c0000102000008060000000e000fbff320090
:10282c001e0078009e009000008040001040780050
:10283c000080fb00201188001e0fe8001e007800ad
:10284c009e00900000804000104078000004e000e2
:10285c00edff3a000080fa00000006000200fa00ca
:10286c000000eb00000f78000000eb00000f780078
:10287c000500370020c420001e0040008040eb0003
:10288c00014878001e0fe800700220009e007800be
:10289c00808f5000f7ff340010c0b3000080fa00a6
:0428ac000000060022
:020000040000fa
:1028b0001a0c00005000000000000000b60c0000e0
:1028c0000200000000000000b80c00000200000040
:1028d00000000000a60c0000100000000000000036
:1028e000000800001a040000000000006a0c00004c
:1028f0003c00000002000000383031004631320058
:102900004243340036303600000000000000000072
:102910000000380030314600313242003538440082
:1029200032460000000000000000000000383000c7
:102930003146310032424300343743004400000046
:102940000000000000000000dc0c00001a00000085
:1029500002000000686a6c00747a4c0000000100fc
:102960000002000004000800001000000000200029
:102970002b2d230030000000ba0c000022000000c4
:102980000200000030313200333435003637380071
:1029900039414200434445004600300031323300a3
:1029a000343536003738390061626300646566008b
:0829b00000000000000000001f
:020000040000fa
:1029b8000200fa00000f78001e00780001022000d3
:1029c800810f50001000320001042000810f5000d8
:1029d8001a003a0011278000f0fb2f0000806000e9
:1029e8001027880041168000f0fb2f00008060004f
:1029f8004016880061168000f0fb2f000080600000
:102a0800601688000e00370011278000f0fd2f00a7
:102a1800008060001027880041168000f0fd2f001c
:102a28000080600040168800601680000050a000fa
:102a38006016880000000000010037000000000058
:102a48000080fa00000006000200fa00000f78007b
:102a58009e80ea0060168000008060006016880092
:102a68000080fa00000006000200fa00000f78005b
:102a7800601680001e007000601688000080fa0052
:102a8800000006000000fa00c422ef00cc22ef008c
:102a980010012000001688000080eb004016880016
:102aa800c622ef00ce22ef00f000200000278800a9
:102ab800e224ef000080fa00000006000000fa009f
:102ac800f0ff07006ffe070081fc0700feff3700dc
:020000040000fa
:0200000401f009
:04000000ffff0000fe
:020000040000fa
:0200000401f009
:04000800ffff0000f6
:020000040000fa
:0200000401f009
:04000c00f8ff0000f9
:020000040000fa
:0200000401f009
:04001000bfff00002e
:020000040000fa
:0200000401f009
:040014005fff00008a
:020000040000fa
:0200000401f009
:04001800ffff0000e6
:020000040000fa
:0200000401f009
:04001c00ffff0000e2
:00000001FF
